:100000002BC043C042C041C040C03FC08AC13DC0B8
:100010003CC03BC03AC039C038C037C036C035C01C
:1000200034C033C064C1020507050202060202079C
:100030000601020407060102010604040702020782
:10004000040601060304070507070103010107056C
:10005000070507070507010711241FBECFEDCDBF18
:1000600010E0A0E6B0E0E8ECF7E002C005900D92E9
:10007000A436B107D9F710E0A4E6B0E001C01D92A4
:10008000A43AB107E1F749D29DC3BACF809B09C01A
:1000900080916A00823011F483E01BC010926A00E4
:1000A0001AC080916A00882399F491E090936A00C5
:1000B0008091A000882379F480919B00813059F0D1
:1000C0009093A0008FEF80939B0010929E0003C03E
:1000D00082E080936A00819B09C080916B0082302E
:1000E00011F483E01AC010926B0019C080916B006C
:1000F000882391F491E090936B008091A000882375
:1001000071F480919B008F3F51F09093A0009093E9
:100110009B0010929E0003C082E080936B00869B40
:1001200009C080916C00823011F483E01AC01092F3
:100130006C0019C080916C00882391F491E0909339
:100140006C008091A000882371F480919E008F3F05
:1001500051F09093A00010929B0090939E0003C0DA
:1001600082E080936C00B69B09C080916D00823064
:1001700011F483E01BC010926D001AC080916D00D5
:10018000882399F491E090936D008091A0008823DA
:1001900079F480919E00813059F09093A0001092E4
:1001A0009B008FEF80939E0003C082E080936D00E0
:1001B00080916A00882361F480916B00882341F468
:1001C00080916C00882321F480916D00882331F0A8
:1001D000109267001092690010926800089583E001
:1001E0008BBB87E588BB8BE482BB089580936E0050
:1001F00080936F00809370008093710080937200F1
:100200000895EDDF80916200882309F43AC080915F
:1002100073008F5F809373008150853010F01092CF
:100220007300E0917300F0E0E259FF4FE0818091AC
:1002300074008111E095E6FDD998E5FDD898E4FDBC
:10024000C498E3FD9398E2FDC298E1FDC198E0FDFA
:10025000C09880917300823079F0833028F488232D
:1002600079F0813071F40AC0833021F0843049F490
:10027000C59A0895C39A0895929A0895959A0895F3
:10028000949A08951F9319B710926200A8DF89B756
:100290008D7F89BF89B78F7789BF85B7806585BF17
:1002A000A895F89481B5806481BD85B7806285BFCB
:1002B0007894889585B78F7D85BFE8DE80916A0048
:1002C000882361F480916B00882341F480916C0055
:1002D000882321F480916D00882311F381E08093BD
:1002E000620019BF81B58F7B81BD1F9108951F9258
:1002F0000F920FB60F9211240F900FBE0F901F9008
:1003000018951F93182F80E090E046D2811710F0C7
:1003100080E005C080E090E0612F46D281E01F912F
:1003200008951F920F920FB60F9211242F933F93AF
:100330004F935F936F937F938F939F93AF93BF93ED
:10034000EF93FF9385E082BF5CDF8091680090911E
:100350006900019690936900809368000197815A23
:100360009F4078F0109269001092680080916700B9
:100370008F5F8093670081508D3318F01092670073
:1003800081DF809177008F5F809377008150893C77
:1003900008F477C0109277008091A000882309F4B8
:1003A00075DE80916600813009F06BC080E01EDF51
:1003B00040E050E01AC0F901E40FF51FE858FF4F84
:1003C0008081882331F0FB01E259FF4F8081892B26
:1003D00080836F5F7F4F295F3F4F2332310559F78D
:1003E0004F5F5F4F4730510571F081E090E0042E80
:1003F00002C0880F991F0A94E2F7982F60E070E01E
:1004000020E030E0D8CF80916400909165000196A3
:1004100090936500809364000197089720F01092F4
:1004200065001092640080916400909165000497CB
:10043000A0F0E091A100FF27E7FDF095E259FF4F02
:1004400020813091A30081E090E002C0880F991FC5
:100450003A95E2F7282B208314C0E091A100FF27F2
:10046000E7FDF095E259FF4F30812091A30081E034
:1004700090E002C0880F991F2A95E2F780958323A8
:10048000808380917500909176000196909376001C
:1004900080937500FF91EF91BF91AF919F918F91E4
:1004A0007F916F915F914F913F912F910F900FBE70
:1004B0000F901F9018959C01220F331F220F331F9E
:1004C00010927600109275008091750090917600E0
:1004D00082179307C8F308958CB59DB5282F2F7305
:1004E0002332D4F7E22FFF27E7FDF095E858FF4FBE
:1004F0008081882389F787E190E09DBD8CBD1092B3
:10050000A10006C027508091A1008F5F8093A100B9
:100510002730C4F72093A30008950F931F93CF9320
:10052000DF93F89483B7826083BF8EB581608EBD00
:100530008FB581608FBD479A8AB383608ABB87B3CA
:100540008F6387BB81B38C6381BBBE9881B38C7B87
:1005500081BBC69A82B3836482BB84B7877F84BF22
:1005600088E181BD86E981BD3ADE89B7826089BFB5
:10057000789480E03BDE82E080939D008093A2002F
:1005800081E080939E0010929B0080E090E0FC014F
:10059000E858FF4F1082019683329105C1F782E03F
:1005A0008093880011E01093870080939C00109244
:1005B0009F001092A00090DF109366008FEF90E0F4
:1005C0007ADF80916A00882361F480916B00882330
:1005D00041F480916C00882321F480916D00882380
:1005E00081F3809160009091610065DF80919F00B0
:1005F000882381F420E030E0F901E858FF4F808142
:10060000882319F08081815080832F5F3F4F2332F0
:10061000310591F710929F0080919D0000919E00FE
:10062000080F8091A20010919B00180F07FF02C0D5
:1006300006E003C007300CF000E017FF02C014E032
:1006400003C015300CF010E0812F992787FD90959D
:1006500067E070E08FD0E02FFF27E7FDF095E80F0F
:10066000F91FE858FF4F8081882321F082E08093B2
:10067000660020C080919C00808380919C00833222
:1006800090F48091A100181789F48091A3000817B5
:1006900069F480919C008F5F80939C0081E080933F
:1006A0009F001ADF03C083E08093660000939D00E3
:1006B0001093A2001092A00080916600813009F48E
:1006C00090CF80919C001DDE882311F040E008C08F
:1006D00010E030C04B5F80919C008A5080939C005A
:1006E00080919C008A30B0F7C42FD0E0CA5DDF4F04
:1006F00020E030E080919C0090E065E070E03AD02E
:10070000F901E80FF91FEA5DFF4FE491D901A25901
:10071000BF4FEC93442339F09C91FE018491829564
:10072000807F892B8C932F5F3F4F21962530310599
:1007300009F7CECF8091620091E089278093620013
:1007400084E690E0B8DE1F5F1E31A1F780916A0059
:10075000882309F010CF80916B00882309F00BCF1C
:1007600080916C00882309F006CF80916D0088236A
:1007700069F301CF5527002480FF02C0060E571FE2
:10078000660F771F6115710521F096958795009783
:1007900099F7952F802D0895E199FECF1FBA8EBB52
:1007A000E09A99278DB30895262FE199FECF1CBAC0
:1007B0001FBA8EBB2DBB0FB6F894E29AE19A0FBE1A
:0807C00001960895F894FFCFA3
:0407C8002C010100FF
:00000001FF
